:020000040800F2
:1000000000200020D10300080F02000811020008A0
:1000100000000000000000000000000000000000E0
:1000200000000000000000000000000013020008B3
:100030000000000000000000150200081702000880
:1000400021040008210400082104000821040008FC
:1000500021040008210400082104000821040008EC
:100060000000000021040008210400082104000809
:1000700021040008210400082104000800000000F9
:1000800021040008210400080000000021040008E9
:1000900021040008210400082104000821040008AC
:1000A000210400082104000821040008210400089C
:1000B0002104000800000000000000000000000013
:0C00C000210400080000000021040008DA
:1000CC0010B540F20404C2F20004237863B940F284
:1000DC000003C0F200032BB140F27440C0F60000E4
:1000EC0000E000BF0123237010BDC04640F20003A6
:1000FC00C0F2000310B54BB140F2080140F274405D
:10010C00C2F20001C0F6000000E000BF10BDC04606
:10011C0010B500F02BF840F2125000F0D0F840F27D
:10012C000044C4F60004022302220121200000F046
:10013C0070F8022300220021200000F091F8022127
:10014C00200000F0AEF840F20044C4F60004022196
:10015C00200000F0A4F8FA2000F038F8022120006A
:10016C0000F09FF8FA2000F031F8ECE740F20003C1
:10017C00C2F200031B6840F2E832B3FBF2F3013B1E
:10018C0080225204934216D24EF21002CEF200029A
:10019C0053604EF60051CEF200010B6A1B021B0A93
:1001AC00C020000603430B620023936007331360E7
:1001BC00002313B1FEE70123FBE74EF60052CEF20B
:1001CC000002136A1B021B0A1362704740F22003E1
:1001DC00C2F20003186040F22003C2F200031B6855
:1001EC00002BF8D1704740F22003C2F200031B68C9
:1001FC0033B140F22003C2F200031A68013A1A60CC
:10020C0070477047FEE77047704710B5FFF7EBFF7C
:10021C0010BDF0B5CE46474680B5844691461800D1
:10022C0063461F68DE68002401E00134A4B20F2C81
:10023C000FD80125A5402842F7D0630003259D4027
:10024C00AF430A009A401743AE434A469A401643BE
:10025C00EBE763461F60DE60C0BCB946B046F0BD3C
:10026C0070B5012905D0416899434160856800212A
:10027C0005E0416819434160F8E7013189B20F2963
:10028C000BD801248C402342F7D04E000324B440F9
:10029C00A5431400B4402543EFE7856070BD816130
:1002AC007047816270474FF68073C1F6FF73194037
:1002BC0001434EF60053CEF2000399607047830958
:1002CC0041F2000CC4F2020C63441A681F2108406E
:1002DC001E3981400A431A60704741F20403C4F28C
:1002EC0002031A681A601A681A601A681A601A6887
:1002FC0003218A431A601A681A601B68704710B58C
:10030C00FFF7EBFF10BD000010B541F20003C4F283
:10031C0002031A6801210A431A6041F20003C4F275
:10032C0002031B689B07F8D541F20403C4F20203D5
:10033C001A680C21C0F6FF010A401A601A684FF6C1
:10034C00FF71C7F2C2710A401A6041F20003C4F295
:10035C0002031A684FF6FF71CFF6F2610A401A6079
:10036C0041F22C03C4F202031A680F218A431A606B
:10037C0041F23003C4F202031A6810490A401A60B1
:10038C001A680F490A401A601A68520052081A601B
:10039C0041F23403C4F202031A6801218A431A6041
:1003AC0041F20803C4F2020300221A60FFF7A7FF10
:1003BC00802000210005FFF776FF10BDFCFEFFFF3B
:1003CC00FFFFFEFF0D4885460D480E490E4A0023DF
:1003DC0002E0D458C4500433C4188C42F9D30B4AED
:1003EC000B4C002301E013600432A242FBD3FFF755
:1003FC008BFF00F011F8FFF78BFEFEE700200020CA
:10040C0000000020040000209404000804000020D8
:10041C0024000020FEE7000070B500250E4C0F4BA9
:10042C00E41AA410A54209D1002500F01DF80C4CCB
:10043C000C4BE41AA410A54207D170BD074AAB00BF
:10044C009B181B6898470135ECE7064AAB009B18D4
:10045C001B6898470135EEE78C0400088C040008F3
:10046C00900400088C040008F8B5C046F8BC08BC21
:10047C009E467047F8B5C046F8BC08BC9E4670470F
:04048C00F90000086B
:04049000CD00000893
:0404940000127A00D8
:04000005080003D11B
:00000001FF
